S01300004B31305F50726F6A6563742E737265632F
S1130000F8FF002011040000F51F0000F51F000098
S1130010F51F0000F51F0000F51F0000F51F00008C
S1130020F51F0000F51F0000F51F0000F51F00007C
S1130030F51F0000F51F0000F51F0000F51F00006C
S1130040F51F0000F51F0000F51F0000F51F00005C
S1130050F51F0000F51F0000F51F0000F51F00004C
S1130060F51F0000F51F0000F51F0000F51F00003C
S1130070F51F0000F51F0000F51F0000F51F00002C
S1130080F51F0000F51F0000F51F0000F51F00001C
S1130090F51F0000F51F0000F51F0000F51F00000C
S11300A0F51F0000F51F0000F51F0000F51F0000FC
S11300B0F51F0000F51F0000F51F0000F51F0000EC
S11300C0F51F0000F51F0000F51F0000F51F0000DC
S11300D0F51F0000F51F0000F51F0000F51F0000CC
S11300E0F51F0000F51F0000F51F0000F51F0000BC
S11300F0F51F00003D810000F51F0000F51F000002
S1130100F51F0000F51F0000F51F0000F51F00009B
S1130110F51F0000F51F0000F51F0000F51F00008B
S1130120F51F0000F51F0000F51F0000F51F00007B
S1130130F51F0000F51F0000F51F0000F51F00006B
S1130140F51F0000F51F0000F51F0000F51F00005B
S1130150597F0000F51F0000F51F0000F51F000087
S1130160F51F0000F51F0000F51F0000F51F00003B
S1130170F51F0000F51F0000F51F0000F51F00002B
S1130180F51F0000F51F0000F51F0000F51F00001B
S1130190F51F0000F51F0000F51F0000F51F00000B
S11301A0F51F0000F51F0000F51F0000136E00008E
S11301B0F51F0000F51F0000F51F0000F51F0000EB
S11301C0F51F0000F51F0000F51F0000F51F0000DB
S11301D0F51F0000F51F0000F51F0000F51F0000CB
S11304104FF000004FF000014FF000024FF00003D6
S11304204FF000044FF000054FF000064FF00007B6
S11304304FF000084FF000094FF0000A4FF0000B96
S11304404FF0000C62B607F041FDFEE738B504003A
S113045000220121DFF8800C01F017FB00220321A8
S1130460DFF8740C01F011FB00BF01220121DFF859
S1130470680C01F00AFB00BF01220321DFF8580CCD
S113048001F003FB00BF00220121DFF84C0C01F056
S1130490FCFA00BF221D1121DFF8400C01F0B4FB6F
S11304A000220321DFF8300C01F0EFFA012517E0F8
S11304B000BF01220321DFF8200C01F0E6FA00BF9F
S11304C0EDB214EB4500821C1121DFF8100C01F091
S11304D09BFB00220321DFF8000C01F0D6FA6D1C0F
S11304E0EDB2802DE4D300BF14F581721121DFF841
S11304F0EC0B01F089FB00BF01220321DFF8D80BCC
S113050001F0C3FA00BF00220321DFF8CC0B01F095
S1130510BCFA31BD38B5040000220621DFF8C00B57
S113052001F0B3FA00221121DFF8B40B01F0ADFAA7
S113053000BF01220621DFF8A80B01F0A6FA00BFD4
S113054001221121DFF8980B01F09FFA00BF00226D
S11305500621DFF88C0B01F098FA00BF14F58172C4
S11305601221DFF8780B01F04FFB00221121DFF894
S1130570700B01F08AFA7E2517E000BF01221121D9
S1130580DFF85C0B01F081FA00BFEDB214EB45001B
S1130590821D1221DFF8440B01F036FB00221121E9
S11305A0DFF83C0B01F071FA6D1EEDB2012DE4D2BF
S11305B000BF221D1221DFF8240B01F025FB00BF30
S11305C001221121DFF8180B01F05FFA00BF0022AD
S11305D01121DFF80C0B01F058FA31BD70B506009B
S11305E00023002200200021DFF8F84A00252570AE
S11305F0DFF8F44A2478012C06D1DFF8F02A1288B7
S1130600521CDFF8E83A1A80DFF8E42A1288521CF8
S1130610DFF8DC3A1A80DFF8DC2A1288521CDFF893
S1130620D43A1A80DFF8D02A1278521CDFF8C83A7C
S11306301A70DFF8C82A1278022A43D1DFF8C02AD8
S11306401278022A3ED196F8F92196F8FC31D21A92
S11306500E2A37DA96F8FC2196F8F831D21A232AB2
S113066030DB002205E0D2B29319002483F87841EC
S1130670521C96F8F831D2B29342F4D296F8FD2186
S113068005E0D2B29319002483F87841521CD2B207
S1130690802AF6D396F8F92186F8F821002286F804
S11306A0F921002286F8FD21DFF8502A1278521E23
S11306B0DFF8483A1A70DFF8482A1278521EDFF839
S11306C0403A1A70DFF8342A1278022A40F0BF80C8
S11306D0DFF82C2A1278012A40F0B98096F8F92123
S11306E096F8FC31D21A0E2A22DA96F8FC2196F8F2
S11306F0F831D21A232A1BDB002205E0D2B2931967
S1130700002483F87841521C96F8F831D2B293420F
S1130710F4D296F8F92186F8F821002286F8F92116
S1130720DFF8D8291278521EDFF8D0391A708EE01B
S113073096F8F92196F8FC31D21A102AC0F2878073
S113074096F8F82196F8FC31D21A1E2A80F27F809E
S1130750B6F90C22DFF8AC399A4278DADFF8A82926
S11307601288DFF8A83996F8F941D454DFF89829AB
S11307701288DFF89C3996F8FC41D454DFF88829B4
S11307801288521CDFF880391A80DFF87C2912881D
S1130790062A03D3DFF8702905231380DFF86829BC
S11307A01288052A53D3DFF868295278DFF86039B4
S11307B01B78D21A012A4ADADFF850295278DFF876
S11307C04C391B78D21A012A41DADFF8442992788D
S11307D0DFF83C395B78D21A012A38DADFF82C29A1
S11307E05278DFF828391B78D21A012A2FDADFF879
S11307F02029D278DFF818399B78D21A012A26DA10
S1130800DFF808295278DFF804391B78D21A012A54
S11308101DDADFF8FC281279DFF8F438DB78D21A15
S1130820012A14DADFF8E4285278DFF8E0381B787C
S1130830D21A012A0BDADFF8D02800231380DFF85C
S1130840B02800231380DFF8242C01231370DFF871
S1130850A0281288DFF8B0381B889A4207D0DFF846
S1130860902800231380DFF8A02800231380DFF8EA
S11308708C281278012A40F0B380DFF8842812789B
S1130880022A40F0AD8096F8F82196F8FC31D21A8D
S11308900E2A1DDA96F8FD2196F8F831D21A232A89
S11308A016DB96F8FD2105E0D2B29319002483F8F3
S11308B07841521CD2B2802AF6D3002286F8FD2158
S11308C0DFF83C281278521EDFF834381A7087E0BB
S11308D096F8F82196F8FC31D21A103A0E2A80F0D4
S11308E07F80B6F90C2240F2F5139A4278DBDFF8E8
S11308F0802B1288DFF8143896F8F841D454DFF8C6
S1130900702B1288DFF8083896F8FC41D454DFF8CD
S1130910602B1288521CDFF8583B1A80DFF8502BEA
S11309201288062A03D3DFF8482B05231380DFF847
S1130930402B1288052A53D3DFF8D4275278DFF8E6
S1130940D0371B78D21A012A4ADADFF8C027527846
S1130950DFF8B8371B78D21A012A41DADFF8B0275A
S11309609278DFF8AC375B78D21A012A38DADFF8EC
S11309709C275278DFF894371B78D21A012A2FDA91
S1130980DFF88C27D278DFF888379B78D21A012ACF
S113099026DADFF878275278DFF870371B78D21A16
S11309A0012A1DDADFF868271279DFF86437DB786B
S11309B0D21A012A14DADFF854275278DFF84C37B8
S11309C01B78D21A012A0BDADFF8A42A0023138039
S11309D0DFF8202700231380DFF8902A0123137007
S11309E0DFF810271288DFF8883A1B889A4207D06C
S11309F0DFF8002700231380DFF8742A0023138014
S1130A00DFF8F8261278012A40F00A81DFF8F02690
S1130A101278012A40F00481DFF8582A1278012A5A
S1130A201FD1DFF8502A00231370DFF84C2A00236B
S1130A301380DFF8482A00231370DFF8442A0023C8
S1130A401360DFF8282A00231370DFF89C260023A4
S1130A501370DFF8302A00231370DFF82C2A0023E8
S1130A601380DFF8282A1278012A03D1DFF81C2A20
S1130A700023137096F8F82196F8FC31D21A0E2A46
S1130A8035DBB6F90C22DFF87C369A4214DA002200
S1130A9005E0D2B29319012483F87841521C96F8E8
S1130AA0FC31D2B29A42F4D3DFF854261278521EA3
S1130AB0DFF84C361A70B3E0B6F90C2240F2F513A5
S1130AC09A42C0F2AD8096F8F82105E0D2B29319AB
S1130AD0012483F87841521CD2B2802AF6D3DFF87D
S1130AE01C261278521EDFF814361A7098E096F815
S1130AF0F82196F8FC31D21A921F082A80F08480DB
S1130B0096F8F82196F8FC319A18022392FBF3F236
S1130B10DFF87C391A70DFF878291278233292B220
S1130B206F2A06D2DFF868291278233286F8FC216E
S1130B3009E0002286F8FC21DFF8C4251278521E51
S1130B40DFF8BC351A70DFF848291278233A112AE5
S1130B5006DBDFF83C291278233A86F8F82109E00D
S1130B60002286F8F821DFF894251278521EDFF867
S1130B708C351A70DFF81829127800E0521CDFF85F
S1130B8010391B782333D2B2934215DBD2B29319B6
S1130B90002483F87841D2B2802AEFD3DFF860359D
S1130BA01B785B1EDFF85845237005E0D2B2931919
S1130BB0012483F87841521CD2B27F2AF6D3DFF89D
S1130BC0D028127800E0521ED2B2DFF8C4381B7865
S1130BD0233B9A420EDBD2B29319002483F8784166
S1130BE0D2B2012AEFD2DFF814351B785B1EDFF88E
S1130BF00C452370D2B2012A12D3D2B29319012424
S1130C0083F87841521EF5E7DFF870281278012A3C
S1130C1006D1DFF864281288521CDFF85C381A8089
S1130C20DFF8D8241278012A7AD1DFF8D424127894
S1130C30002A75D1B6F90E2240F279539A4217DB95
S1130C4096F8F82105E0D2B29319012483F878418B
S1130C50521CD2B2802AF6D3DFF8A0241278521E96
S1130C60DFF898341A70B6F80E22A6F80C2257E072
S1130C70DFF874241278012A29D1DFF818281268C1
S1130C80012A06D1DFF800281288521CDFF8F83751
S1130C901A80DFF8F4271288042A04D2DFF8D42754
S1130CA01278012A3CD1DFF8CC270123137096F87F
S1130CB0F82105E0D2B29319012483F87841521C3B
S1130CC0D2B2412AF6D3402286F8F82128E0DFF890
S1130CD0B4271278012A23D1DFF8BC271278521CDA
S1130CE0DFF8B4371A70DFF8B0271278042A04D278
S1130CF0DFF880271278012A12D1DFF87827012340
S1130D00137096F8F82105E0D2B29319012483F800
S1130D107841521CD2B2412AF6D3402286F8F821F7
S1130D20DFF8D8231278002A7DD1DFF8D423127893
S1130D30012A78D1B6F90E22DFF87C3C9A4218DAFF
S1130D40002205E0D2B29319012483F87841521CA1
S1130D5096F8FC31D2B29342F4D2DFF8A42312788D
S1130D60521EDFF89C331A70B6F80E22A6F80C2235
S1130D7059E0DFF874231278012A2AD1DFF8142706
S1130D801268012A06D1DFF800271288521CDFF806
S1130D90F8361A80DFF8F0261288042A04D2DFF825
S1130DA0D4261278012A3ED1DFF8C8260123137015
S1130DB0402205E0D2B29319012483F87841521CF1
S1130DC096F8FC31D2B29342F4D2402286F8F8214C
S1130DD029E0DFF8B0261278012A24D1DFF8B826FA
S1130DE01278521CDFF8B0361A70DFF8AC2612788D
S1130DF0042A04D2DFF87C261278012A13D1DFF802
S1130E00742601231370402205E0D2B29319012401
S1130E1083F87841521C96F8FC31D2B29342F4D252
S1130E20402286F8F821DFF860261288AF4B1B8831
S1130E309A4206D0DFF8502600231380AB4A0023E1
S1130E401380DFF854261278DFF8703B1B789A423F
S1130E5007D0DFF8442600231370DFF8602B00234B
S1130E601370A64A1278002A13D1A54A1278012ACF
S1130E700FD196F8FC213F2A0BD296F8FC2105E00D
S1130E80D2B29319002483F87841521CD2B2402A7A
S1130E90F6D39A4A1278012A14D1994A1278002A70
S1130EA010D196F8F821402A0CD3402205E0D2B2A2
S1130EB09319002483F87841521C96F8F831D2B281
S1130EC09342F4D2002206E0B2F13E03DBB2052BDA
S1130ED000D2491C521CD2B2802A07D2D2B2931932
S1130EE093F87831012BEFD1401CF3E7834909785B
S1130EF0834A12781143C9B2002953D1B18D2929EB
S1130F0034D3B6F87210292930D3B6F882102929BF
S1130F102CD3B6F88410292928D3B6F8901029299F
S1130F2024D3B6F8D610292920D30020DFF8901A4C
S1130F300978491CDFF8882A1170DFF8841A0978C7
S1130F40072903D3DFF8441501220A70002205E0C3
S1130F50D2B29119002381F87831521CD2B2802A7E
S1130F60F6D3B6F80E12A6F80C121BE0002205E028
S1130F70D2B29119012381F87831521CD2B2802A5D
S1130F80F6D3B6F90C124FF60D62891A40F2E73225
S1130F9089B2914202D2534901220A70B6F80E1264
S1130FA0A6F80C1254490978DFF8142A12789142F1
S1130FB006D0514900220A70DFF8041A00220A7090
S1130FC04E49097801290FD14D49097801290BD1DE
S1130FD096F8FC1196F8F821891A142904DA7F206E
S1130FE0B6F80E12A6F80C12001FC0B256283AD258
S1130FF042480078022836D241480078022832D28A
S1131000002004230CE0DBB2991991F8781101292E
S113101005D1DBB2DFF8AC1931F9131008185B1CE9
S1131020DBB27C2BEFD3A6F80C02B6F90C0200F06D
S1131030FDFDDFF89429DFF8943900F00FFE040079
S11310400D00B6F90E0200F0F1FDDFF88429DFF897
S1131050843900F003FE22002B0000F0E1FE00F0D2
S113106053FFA6F80C02B6F90E02DFF84C198842B9
S113107005DAB6F90C0240F2795188420BDAB6F976
S11310800E0240F27951884209DBB6F90C02DFF80E
S11310902819884203DAB6F80E02A6F80C02B6F84C
S11310A00C02A6F80E0296F8010286F8000296F8E1
S11310B0020286F8010296F8030286F8020296F804
S11310C0040286F8030296F8050286F8040296F8EC
S11310D0F80186F8050270BDC0F00F4000B003406F
S11310E000F10F40D40FFF1FC30FFF1F920FFF1F0C
S11310F0960FFF1F980FFF1FDB0FFF1FCF0FFF1F60
S1131100D00FFF1F0CFEFFFF9A0FFF1F500FFF1F92
S1131110580FFF1F70B50600002200210020DFF8E1
S1131120B8381B78012B3FD1DFF8B01809780129B2
S11311303AD196F8F81196F8FC21891A0E2933DB76
S1131140B6F90C12DFF89828914214DA002105E070
S1131150C9B28A19012382F87831491C96F8FC2116
S1131160C9B29142F4D3DFF874180978491EDFF844
S11311706C28117018E0B6F90C1240F2F512914285
S113118012DB96F8F81105E0C9B28A19012382F836
S11311907831491CC9B28029F6D3DFF83C180978A4
S11311A0491EDFF834281170DFF82C18097801295A
S11311B021D1DFF82818097800291CD1B6F90E12BC
S11311C040F27952914216DB96F8F81105E0C9B263
S11311D08A19012382F87831491CC9B28029F6D3CF
S11311E0DFF8F4170978491EDFF8EC271170B6F818
S11311F00E12A6F80C12DFF8E0170978002922D1A4
S1131200DFF8D817097801291DD1B6F90E12DFF8D5
S1131210A827914217DA002105E0C9B28A190123EF
S113122082F87831491C96F8FC21C9B28A42F4D27A
S1131230DFF8A8170978491EDFF8A0271170B6F85F
S11312400E12A6F80C12DFF890170978002914D1B1
S1131250DFF88817097801290FD196F8FC113F2986
S11312600BD296F8FC1105E0C9B28A19002382F862
S11312707831491CC9B24029F6D3DFF85C170978E4
S1131280012915D1DFF854170978002910D196F8EF
S1131290F81140290CD3402105E0C9B28A19002372
S11312A082F87831491C96F8F821C9B28A42F4D2FE
S11312B0002107E0C9B28A1992F87821012A00D1E5
S11312C0401C491CC9B28029F4D3DFF80C170978F3
S11312D0DFF8082712781143C9B2002936D1B18D3D
S11312E0472924D3B6F87210472920D3B6F88210C0
S11312F047291CD3B6F88410472918D3B6F89010A0
S1131300472914D3B6F8D610472910D3002000215A
S113131005E0C9B28A19002382F87831491CC9B2A0
S11313208029F6D3B6F80E12A6F80C120EE00021AE
S113133005E0C9B28A19012382F87831491CC9B27F
S11313408029F6D3B6F80E12A6F80C12DFF8881628
S11313500978012910D1DFF88416097801290BD105
S113136096F8FC1196F8F821891A142904DA7F20DA
S1131370B6F80E12A6F80C12001FC0B256283CD2C2
S1131380DFF854060078022837D2DFF850060078D8
S1131390022832D2002004220CE0D2B2911991F832
S11313A07811012905D1D2B2DFF8181631F91210DB
S11313B00818521CD2B27C2AEFD3A6F80C02B6F954
S11313C00C0200F033FCDFF80026DFF8003600F0F2
S11313D045FC04000D00B6F90E0200F027FCDFF80E
S11313E0F025DFF8F03500F039FC22002B0000F086
S11313F017FD00F089FDA6F80C02B6F90E02DFF81D
S1131400B815884205DAB6F90C0240F279518842DF
S11314100BDAB6F90E0240F27951884209DBB6F9CB
S11314200C02DFF89415884203DAB6F80E02A6F827
S11314300C02B6F80C02A6F80E0296F8010286F821
S1131440000296F8020286F8010296F8030286F872
S1131450020296F8040286F8030296F8050286F85A
S1131460040296F8F80186F8050270BDC20FFF1F4A
S11314709C0FFF1FD50FFF1F900FFF1FD60FFF1FDD
S1131480400FFF1FD70FFF1F940FFF1FDC0FFF1F1D
S1131490D30FFF1F300FFF1FD80FFF1F70B500239E
S11314A0002400210022DFF83C5500262E70DFF8CE
S11314B0385500262E70DFF8205500262E70DFF8F0
S11314C01C5500262E70002529000AE0C9B20A180E
S11314D0002382F8F831C9B20A18002382F8FC31DB
S11314E0491CC9B20429F1D3002105E0C9B20A1884
S11314F0002382F87831491CC9B28029F6D300222E
S113150019E052B210EB4201498A002912D152B2B9
S113151010EB4201098A022391FBF3F152B210EB62
S113152042039B8A022493FBF4F3591852B210EB42
S113153042035982521C52B2782AE2DB00220DE0A7
S113154052B210EB4201498A52B210EB4203DB8BD8
S1131550C91A52B2131883F80411521C52B26C2ADD
S1131560EEDB90F80411DFF88424117090F86F1109
S1131570DFF87C241170002211E0DFF8701491F977
S1131580001052B2131893F90431994206DA52B298
S1131590111891F80411DFF854341970521C52B226
S11315A06C2AEADBDFF8441491F90010022291FB63
S11315B0F2F1DFF838241170DFF8301491F90010DB
S11315C090F91122914204DA90F81112DFF81C24E8
S11315D011706B2211E052B2111891F90411DFF865
S11315E0103493F90030994206DA52B2111891F886
S11315F00411DFF8FC331970521E52B2002AEAD5E6
S1131600DFF8EC1391F90010022291FBF2F1DFF8FC
S1131610E023117090F91012DFF8D42392F900201E
S1131620914204DA90F81012DFF8C42311700A23EF
S113163027E0E4B22118002281F87821641CDFF845
S11316409C130978091891F8FC11E4B2A142F0D274
S1131650DFF888130978491CDFF880231170DFF85C
S11316607C130978042903D3DFF8701303220A706A
S1131670DFF8701300220A70DFF86C1301220A707D
S11316805B1CDBB26F2B80F05481DFF8641391F99B
S11316900010DBB210EB43029288DBB210EB430480
S11316A0248A121B9142C0F2AD80D14991F90010F5
S11316B0DBB210EB4302D288DBB210EB4304648A42
S11316C0121B9142C0F29E80C94991F90010DBB20D
S11316D010EB43021289DBB210EB4304A48A121B01
S11316E09142C0F28F80BF490978002940F08A8076
S11316F0B949097809189A1D81F8F821BD490022D1
S11317000A800022DC1F14E0E4B2211891F90411CC
S1131710B74D95F90050A9420ADAB6490988E4B2EE
S1131720251895F9045141FA85F1B24D2980521CCE
S1131730641CDBB2D91CE4B2A142E5DAAD49B1F9CB
S1131740001052B291FBF2F1032291FBF2F180F806
S11317501012016801290AD190F910127FF00802D1
S1131760914211DB7FF0090180F810120CE001684E
S1131770022909D190F910127FF01202914203DB81
S11317807FF0130180F8101294490978002913D0CE
S113179092490978091891F8FB418F490978091889
S11317A091F8F811E4B2A1421AD3E4B2211801224B
S11317B081F87821641CF0E788490978091891F8C0
S11317C0FC4105E0E4B22118012281F87821641C6F
S11317D081490978091891F8F811E4B2A142F1D2CB
S11317E0804901220A70804900220A707A490978E6
S11317F0491C794A117078490978042902D3764939
S113180003220A70DBB210EB43018988DBB210EBD0
S11318104302128A891A754A92F900209142FFF60E
S11318202FAFDBB210EB4301C988DBB210EB4302EC
S1131830528A891A6D4A92F900209142FFF620AF2C
S1131840DBB210EB43010989DBB210EB4302928A4D
S1131850891A664A92F900209142FFF611AF624953
S1131860097800297FF40CAF5C49097809189A1D9E
S113187081F8FC215F4900220A800022DC1F14E069
S11318805A4991F90010E4B2251895F90451A94276
S11318900ADA58490988E4B2251895F9045141FA3D
S11318A085F1544D2980521C641CDBB2991CE4B2AE
S11318B0A142E5DA4F49B1F9001052B291FBF2F1BD
S11318C0032291FBF2F180F811120168012907D17A
S11318D090F911120A290DDA0A2180F8111209E08F
S11318E00168022906D190F91112142902DA14218F
S11318F080F8111238490978002914D0364909783A
S1131900091891F8F74135490978091891F8FC113B
S1131910E4B2A142FFF49CAEE4B22118002281F8A3
S11319207821641CEFE72C490978091891F8F841EB
S113193085E62D49097801290ED128490978091825
S113194091F8FB4105E0E4B22118012281F87821E5
S1131950641CE4B2802CF6D32249097801290ED103
S11319601D490978091891F8F74105E0E4B22118F6
S1131970002281F87821641CE4B2802CF6D301683B
S1131980012903D11C48FEF729FE05E0006802285E
S113199002D11A48FFF7BEFB19480078002805D188
S11319A01548B0F80C021749088004E01348B0F851
S11319B00C021449088070BD88FAFFFFD90FFF1F7D
S11319C0DA0FFF1FD8830000CDCCCCCCCCCCEC3FBD
S11319D09A9999999999B93FCF0FFF1FD00FFF1F7B
S11319E00CFEFFFFD10FFF1FD20FFF1FCD0FFF1FF4
S11319F0CE0FFF1F8E0FFF1FD408FF1FE80AFF1F23
S1131A00DC0FFF1FFC0CFF1F70B50C001500002637
S1131A1000F04DF8E4B250F824100E0036F4E066FD
S1131A20EDB2290211F4E0610E43E4B240F82460FF
S1131A3070BD38B50C00150000F039F8EDB2012D79
S1131A4008D1E4B250F8241051F04001E4B240F857
S1131A50241007E0E4B250F8241031F04001E4B25D
S1131A6040F8241031BDD2B2012A06D142690123C3
S1131A7013FA01F11143416106E04269012313FAAB
S1131A8001F132EA010141617047D2B2012A06D163
S1131A900268012313FA01F11143016006E00268B0
S1131AA0012313FA01F132EA0101016070470C4A83
S1131AB0801A08D0403808D0403808D0403808D0C0
S1131AC0403808D009E0074907E0074905E007491D
S1131AD003E0074901E00749FFE7080070470000F9
S1131AE000F00F400090044000A0044000B0044007
S1131AF000C0044000D004400069C84010F0010058
S1131B00C0B270473C49884206D13C48006850F056
S1131B1000603A49086008E03949884205D13948EB
S1131B20006850F0006037490860704710B484685A
S1131B30C9B2490111F06001D2B2920012F00C0254
S1131B405118DBB213F003025118103121438160A4
S1131B5010BC7047C9B2012904D1C16851F0100109
S1131B60C16003E0C16831F01001C160C16831F0A7
S1131B700801C160D2B2012A04D1C16851F0040144
S1131B80C16003E0C16831F00401C160C168DBB227
S1131B9013F003021143C160704710B51C00002309
S1131BA00362436AC9B211F003010C311943416263
S1131BB0D2B2012A1BD1016851F0400101600E49E3
S1131BC0884208D1392000F0CEF9E4B2210039204E
S1131BD000F008FA0FE00A4988420CD13A2000F0DC
S1131BE0C2F9E4B221003A2000F0FCF903E00168F4
S1131BF031F04001016010BD00B003403C8004405E
S1131C0000B00B403080044010B40023046823006B
S1131C105B095B01C9B211F01F010B43036001684A
S1131C200906FCD50069108010BC7047010040F122
S1131C300980F446404200F005F851F00041604745
S1131C40010000BF09D0B0FA80F18840C91CC1F579
S1131C508461090501EBD02140057047B0B581EAE4
S1131C60030C0CF0004C40F2FF7515EA11541DBF33
S1131C7015EA1357AC42AF4239E0E41923EA45535D
S1131C8043F48013C90241F0004141EA505EC702A7
S1131C901100A7FB020200284FF00000EEFB012018
S1131CA04FF00001E3FB072118BF42F00102401886
S1131CB000214941E3FB0E01A4F580640F0302D225
S1131CC052004041494154F101046CDD470872F16E
S1131CD0004250F1000051EB0451A1F580115CBFAA
S1131CE041EA0C01B0BD4CEA05510020B0BD05EA43
S1131CF01357AC4214BFAF4241E050EA410E1CBF3F
S1131D0052EA430E02E061460020B0BD24423C4446
S1131D101BD15FEA070EF6D0090302BF014600207B
S1131D20AEF1140EB1FA81F7AEEB070401FA07FE27
S1131D300C37C7F1200100FA07F7C8404EEA000E3D
S1131D4023EA455343F48013A2E733F00043B3FA84
S1131D5083F704BFB2FA82FE77440B3FE41BB7F16A
S1131D60200E2FBF02FA0EF3BB40C7F1200E22FA59
S1131D700EFE38BF43EA0E03BA40641C82E750EA01
S1131D80410E14BF52EA430E6FF000014FF40017E6
S1131D9017EB430F8ABF194617EB410FB5E74CEA1F
S1131DA005510020B0BDD4F10104B4F120070FDACD
S1131DB0C4F12007520828BF42F0010210FA07F5C7
S1131DC001FA07F7E1BF2A43E0403843E1400FE05E
S1131DD0352C98DCC7F1200452EA400220FA07F2BD
S1131DE018BF42F0010231FA07F0A1400A43002172
S1131DF072F1004250F1000051EB0C01B0BD50F8FB
S1131E00041B61B150F8042BD30744BFA9F10103AB
S1131E109A18002342F8043B091FFAD1EFE77047F0
S1131E2070B44FF0004591EA030C44BF6B4000F0DE
S1131E30FBB800BF841A71EB030603D2001BB14147
S1131E40121973414FF4001C1CEB410F34BF7CEB9F
S1131E50430443E00C0DA4EB1356352E50DC45EA45
S1131E60C323DB0A45EAC121C912B6F120050DDD01
S1131E7063FA05F6EB4086EA0305124218BF45F003
S1131E800105C01851F100010CD213E062FA06F505
S1131E90F2405540F3415A40B340F3405A40801851
S1131EA0594107D349085FEA30005FEA350528BF86
S1131EB045F0010501F58011420875F1004250F129
S1131EC0000041EB045170BC4FF4001C1CEB410FAB
S1131ED038BF70470020090D090570471CEB410FFE
S1131EE010D252EA43060BD0BCEB410F05D80C0DBF
S1131EF0AB43661E342EB5DD02E0AB438018594176
S1131F0070BC704770BC7047F446400D40EAC12075
S1131F10490006D200F014F8004248BF6FF00040B8
S1131F20604700F00DF84FF0004188428CBF08462E
S1131F3040426047400D40EAC120490080F00D80D6
S1131F4040F00040490DA1F58061491C05D4D1F150
S1131F501F0154BFC840C01770474FF000007047BE
S1131F60194908607047410900290DD1012110F079
S1131F701F029140154A1160012110F01F0011FA4F
S1131F8000F0134908601CE001290DD1012110F073
S1131F901F0291400F4A1160012110F01F0011FA35
S1131FA000F00D4908600CE0012110F01F0291407F
S1131FB00A4A1160012110F01F0011FA00F00849CB
S1131FC0086000207047000008ED00E080E200E0B7
S1131FD000E100E084E200E004E100E088E200E0E7
S1131FE008E100E000F1604010F56440090101706F
S1131FF000207047704703681AB95A1E02600846E9
S11320007047197811B94FF0FF307047591C0160BF
S11320101878704770B44FF0004591EA030F44BF3D
S11320206B40FFF707BF00BF841A71EB030604D2AD
S11320306E40001BB141121973414FF4001C1CEB9C
S1132040410F34BF7CEB430684E00C0DA4EB135624
S1132050362E7DDC012E43DC45EAC32343EA52538A
S113206012BFD20292025B08240545EAC12141EA6B
S11320705051D2EBC020994125D407D1B0FA80F653
S113208010FA06F164D00020203608E0B1FA81F697
S1132090B140C6F1200220FA02F21143B0404FEAE7
S11320A0F474B4EB465434F001064FEA74040AD8CD
S11320B0D6F50016760D04F00044F04061FA06F2FD
S11320C05040F1404840C00A40EA415021F00041EC
S11320D028BF5FEA500550F1000044EBD12137E0FE
S11320E045EAC323DB0A45EAC121C90AB6F1200542
S11320F00EDD42EA0242120CC5F1200603FA06F68E
S1132100EB4042EA06056D42984161F100010DE0A1
S113211062FA06F5F240554063FA06FC82EA0C02C4
S1132120F3405A406D42904161EB030111F4801F6A
S113213005D1641E620502D06D004041494121F47D
S11321408011430875F1004350F1000041EB045144
S113215070BC70471CEB410F15D223F0004352EAC8
S113216043060BD04FEA4C0CBCEB410F04D80C0DCA
S1132170661E342EB7DDEBE7801A994150EA41061A
S113218008BF0021E4E708BF1CEB430F28BF6FF032
S11321900001DDE72DE9F04FA1B0804617461D464A
S11321A0029102AE0020706211AC6FF000490AE0A7
S11321B017F8011B0298C0470290002800F07882AB
S11321C0706A401C7062387808B9706A72E2252817
S11321D0EED10020F06030617061B061F061306276
S11321E001E040F0010017F8011F2029F9D023294C
S11321F00ED02B2904D02D2906D030290CD00FE085
S113220040F0020080B2EEE740F0040080B2EAE75A
S113221040F0080080B2E6E740F0100080B2E2E748
S11322202A290DD129680A1D2A600968F16200294A
S113223004D54942F16240F0040080B27F1C11E0F1
S11322400021F16209E0F16A494505D001EB8103FF
S113225002EB43013039F1627F1C3A78A2F130017C
S11322600A29F0D339782E291CBF4FF0FF31B1620F
S11322701CD117F8011F2A2906D129680A1D2A60D2
S11322800968B1627F1C11E00021B16209E0B16A02
S1132290494505D001EB810302EB43013039B162BA
S11322A07F1C3A78A2F130010A29F0D330863978BC
S11322B00FF6382000F02CFD08B117F8010B8DF84B
S11322C03A009DF83A00682804D1387868280AD181
S11322D0622005E06C2804BF38786C2803D1712093
S11322E08DF83A007F1C11A8B0603A781046253862
S11322F021D02038022870D9133800F09A800B3886
S113230000F03781401E00F0DD80401E022864D9B1
S1132310001F00F0D780401F34D0401E00F0898099
S1132320401E24D0C01E0CD0801E00F08280C01E2F
S113233000F07F8026E1F068411CF1602521015501
S11323402AE12868011D296000687060B26A002AC9
S113235003D500F0E9FC30611EE1002100F000FD2E
S113236000281ABF7168401AB06A306114E1286805
S1132370011D296000680021CDE9000111A87060E9
S11323807821F2E09DF83A00622818D0682806D037
S11323906A280BD06C2819D0712807D016E0286859
S11323A0011D2960716A00680180F5E02A68101D2A
S11323B02860706AC1171268C2E90001ECE028685D
S11323C0011D2960716A00680170E5E02868011D3B
S11323D02960716A00680160DEE02868C01D20F091
S11323E007002860034603F108002860D3E90001D0
S11323F0CDE90001002904D5F068411CF1602D21CC
S11324000DE0308E810704D5F068411CF1602B216A
S113241005E0C00704D5F068411CF1602021015596
S1132420F06811A940187060114600A800F0D8F9AE
S1132430B2E09DF83A306C2B08BF286811D0712B9C
S113244008BF286802D06A2B28680AD1C01D20F072
S11324500700286084460CF108002860DCE90001CC
S113246003E0011D296000680021CDE90001682B0B
S113247004BFDDE9000180B20BD0622B04BFDDE9AB
S11324800001C0B205D0742B18BF7A2B04D1DDE94A
S113249000010021CDE9000196F8300000075FD566
S11324A0DDE90001002908BF002859D042F02000CE
S11324B0782855D1F06830210155401C411CF16049
S11324C002554DE09DF83A0062280CD0682810D0DF
S11324D06A281AD06C2824D0712816D0742820D0E9
S11324E07A280CD01DE02868011D296090F90000AD
S11324F01BE02868011D2960B0F9000015E0286878
S1132500011D29600068002110E02868C01D20F02A
S113251007002860034603F108002860D3E900019E
S113252004E02868011D29600068C117CDE9000195
S1132530DDE90001002904DAF068411CF1602D2175
S11325400DE0308E810704D5F068411CF1602B2129
S113255005E0C00704D5F068411CF1602021015555
S1132560F06811A940187060114600A800F0A5F8A1
S113257012E0F068411CF16029680A1D2A600968AC
S1132580015509E0F068411CF160252101551AB19B
S1132590F068411CF16002557F1CF06AF168401A32
S11325A0B169401A3169401AF169401A7169401AD7
S11325B0316AA0EB010A96F83000400711D42020BC
S11325C08DF84000BAF1010F0BDBD346012310AAAA
S11325D000A9404600F073FB002869D1BBF1010B50
S11325E0F4D1F36811AA00A9404600F068FB002862
S11325F05ED130208DF84000D6F818B0BBF1010F41
S11326000ADB012310AA00A9404600F058FB002869
S11326104ED1BBF1010BF4D13369726800A9404675
S113262000F04DFB002843D130208DF84000D6F84F
S11326301CB0BBF1010F09DB012310AA00A940461D
S113264000F03DFBA0BBBBF1010BF5D17369306910
S11326507168421800A9404600F031FB40BB3020AD
S11326608DF84000D6F820B0BBF1010F09DB01233F
S113267010AA00A9404600F022FBC8B9BBF1010B27
S1132680F5D196F8300040077FF59DAD20208DF8F8
S11326904000BAF1010FFFF696AD012310AA00A97C
S11326A0404600F00CFB18B9BAF1010AF5D18AE5ED
S11326B04FF0FF3021B0BDE8F08F2DE9FA4B86B022
S11326C005462F696F2908BF082605D041F0200070
S11326D0782814BF0A2610263C24D5E90001814637
S11326E08B469DF81820642A18BF692A05D1002951
S11326F003DAD9F100096BEB4B0BBBF1000F08BFF8
S1132700B9F1000F0CD1286B50B9082E44D195F8BB
S11327103800000740D53B24302087F83B003BE0DD
S1132720A4F101084446F017CDE90460484659462F
S1132730DDE9042300F040FBCDE90201CDE9009B73
S1132740DDE90223DDE90401A0FB029BDDE90001D0
S1132750A0EB09003030C0B23A2803D39DF818101A
S11327605139081808F80700DDE9029BBBF1000F96
S113277008BFB9F1000F03D0E868E1198842CFD34C
S1132780082E09D195F83800000705D5E05D3028FA
S113279002D0641E3020E055C4F13C00A861E11968
S11327A0E960296B884207DA081A2862288F4FF6F5
S11327B0EF710840288710E000290ED595F83810ED
S11327C001F01401102908D1696B6A69891A2A6A0F
S11327D0891A0C1A012CA8BF2C6208B0BDE8F08B32
S11327E02DE9F24F8CB0054602AFD5E90089286B7C
S11327F0002848BF062005D404BF41F02000672804
S113280001D101202863C9F30A5040F2FF739842B2
S11328101DD15FEA093008BFB8F1000F09D10320C8
S1132820A8619DF8300061381A2857D30FF2D041BF
S113283008E00320A8619DF8300061381A284AD3C3
S11328400FF2B4410322E86800F02EFB00E101001E
S113285008D1284600F063FB0128A4BF002300260A
S113286080F2ED8040F2FE316A6861F31E526A60C4
S1132870461A404649460022002300F073FB38BF45
S113288089F0004936B247F297507043724990FB81
S1132890F1F636B2C6F107077049012F21DBC246B3
S11328A0CB4690468946F80707D5504659464246D6
S11328B04B46FFF7D3F982468B467F104046494684
S11328C042464B46FFF7CAF980468946002FEAD1B3
S11328D0D046D94629E00FF21C41B3E70FF21C4160
S11328E0B0E77F429246DFF878B1CDE9002114D0F9
S11328F0F80707D550465946DDE90023FFF7AEF93E
S113290082468B467F10DDE90001DDE90023FFF7F5
S1132910A5F9CDE90001002FEAD1404649465246C7
S11329205B4600F037FB804689469DF8300040F056
S1132930200ABAF1660F0CBF06F10A000620296BC3
S11329404418142CA8BF132430208DF808000DF16E
S11329500907012C34DB40464946FFF7EBFA0146F0
S113296007F1080204234FF00A0CB1FBFCF707EB54
S1132970870BA1EB4B01303102F8011DB7FBFCFCC6
S113298061460CEB8C0EA7EB4E07303702F8017D45
S11329905B1EE8D102F10807083C012CD9DBFFF7E4
S11329A04FF902460B4640464946FFF733FB0246C1
S11329B00B4600202B49FFF751F980468946CAE7A8
S11329C00DF10900381A0DF109079DF80910302995
S11329D005D1401E761E17F8011F3029F9D0BAF12F
S11329E0660F04BF36B2711C04D0BAF1650F0CBF78
S11329F0012100212A6B8B181BB29842B8BF0346F1
S1132A001BB2002B1BD41946814204DAC85D352859
S1132A1028BF392000D23020CA19521E00E05B1EA4
S1132A20491E12F801498442F9D0392802D1C85DFF
S1132A30401CC855002902D57F1E5B1C761C36B28B
S1132A4000961BB23A469DF83010284600F00CF868
S1132A500DB0BDE8F08F0000A08601000000244006
S1132A600000F03F84D797412DE9F04385B0054637
S1132A70894617461E46BDF93040D5F83080012EF0
S1132A8002DA01260FF27C2749F02000662809D0DB
S1132A90672840F098806FF003018C42C0F2808078
S1132AA044457DDA641C66280CD095F8380000078C
S1132AB002D44645B8BFB04624B2B8EB040848BFB8
S1132AC04FF00008E868A96924B2012C25DA4A1CF1
S1132AD030230B54B8F1010F03DA95F838100907C5
S1132AE002D52E211154521CAA6118EB040FB8BF51
S1132AF0C8F1000424B261426962A044B045B8BF81
S1132B00464636B2EE6132463946AB69181800F0D3
S1132B10CBF9A8EB0600A862BAE00818A64218DAB6
S1132B203246394600F0C0F9A9697118A961A01BA1
S1132B306862B8F1010F03DA95F83800000705D58B
S1132B40E8682E220A54E869401CE861C5F8288028
S1132B509EE02246394600F0A7F9A8692018A8612A
S1132B60361BB8F1010F03DA95F83810090704D5BC
S1132B70411CA961E9682E22425436B2B045B8BF5F
S1132B80464636B23246E119A869EB68C01800F02F
S1132B908BF9A8693018A861A8EB0600686277E091
S1132BA0464504DA95F83810090758BFB046B8F11D
S1132BB0010848BF4FF00008B9F1670F0CBF4FF090
S1132BC065094FF04509A9694A1CE86817F8013BF3
S1132BD00B54B8F1010F03DA95F83810090702D540
S1132BE02E211154521CAA61B8F1010F11DB761E7B
S1132BF036B2B045B8BF464636B232463946AB69FE
S1132C00181800F051F9A8693018A861A8EB06005B
S1132C106862A869E968471807F8019B002C5CBF43
S1132C202B2007F8010B03D52D2007F8010B644274
S1132C3000260DF1080824B2012C0EDB0A222146DD
S1132C4000A800F0CAFA019808F8010B009C761C51
S1132C5024B2012CF2DA022E06DA49F020006528AB
S1132C6004BF302007F8010B1EB9302007F8010B10
S1132C7009E0012E07DB761E02A8305C303007F82D
S1132C80010B012EF7DAA869E9684018381AE861DF
S1132C9095F8380000F0140010280DD16869A9696E
S1132CA00818696A0818E9690818A96A0818696B94
S1132CB08842BCBF081A286205B0BDE8F083F8B5A5
S1132CC004460D4616461F46002077B116F8011B30
S1132CD0A868A047A86030B1E86A401CE8620020F8
S1132CE07F1EF3D1F2BD4FF0FF30F2BD686A6C7401
S1132CF07A4C00006E616E004E414E00696E6600B3
S1132D00494E460030000268531C0360117070473E
S1132D100278C9B28A421AB11CBF10F8012FF9E730
S1132D2018BF00207047000000F10103810704D0A0
S1132D3010F8011B89B18107FAD10268B2F101319F
S1132D40914311F0803F04BF50F8042FF6E710F8C8
S1132D50011B11B110F8011BFBE7C01A70470000FA
S1132D60C9B2830706D0521E22D310F8013B994200
S1132D70F7D11FE0083A13D302F1040241EA01211A
S1132D8041EA014150F8043B121F21BF4B40A3F11B
S1132D90013C2CEA030C1CF0803FF3D0C9B2001FA5
S1132DA0083210F8013B521E28BF91EA030FF8D8ED
S1132DB018BF0120401E70471B4213D1094236D16F
S1132DC02AB18446B0FBF2F002FB10C2704700F057
S1132DD00BBAFCD30022002370470B000200002131
S1132DE000207047904271EB030CF6D370B5B1FA32
S1132DF081F4B3FA83F52C1BA340C4F1200532FA05
S1132E0005F63343A2405FF00046E64002E05B086B
S1132E105FEA3202841A71EB030524BF2046294677
S1132E207641F4D302000B003000002170BD012A6A
S1132E30CFD970B5140C20D0B1FA81F4B2FA82F56E
S1132E40C4F120046419B4F12006D6D3B2405FF073
S1132E500044F440002502E052085FEA3303C61A36
S1132E6071EB020E24BF3046714664416D41F3D3C9
S1132E7002000B002000290070BD0C46B1FBF2F1EA
S1132E8002FB11452D0445EA1045B5FBF2F402FBA3
S1132E90145580B240EA0545B5FBF2F002FB10522E
S1132EA040EA044070BD000062B38B0708D0521E94
S1132EB011F8013B00F8013B00F024808B07F6D1A8
S1132EC0830740F0208000BF103A07D330B4B1E844
S1132ED03810103AA0E83810F9D230BC530724BF98
S1132EE0B1E80810A0E8081044BF51F8043B40F8CA
S1132EF0043BD20724BF31F8022B20F8022B44BF35
S1132F000B7803707047083A07D3B1E80810083A01
S1132F1040F8043B40F804CBF7D25307E4E730B45D
S1132F20416801F00042012143681B031B0B43600D
S1132F3004BF0368002B0ED003684468DD0F45EA24
S1132F40440444605B000360491EE302F4D5436813
S1132F501B031B0B436043681A434260084630BCA2
S1132F60704700004FF4001C1CEB410F94BF1CEB96
S1132F70430F09E041EA030C50EA4C0C52EA0C0CF2
S1132F8003D2994208BF9042704714BF8B428242D9
S1132F9070470000F0B540F2FF7581EA030C0CF0B5
S1132FA0004C15EA11541DBF15EA1357AC42AF4249
S1132FB0E5E0BC41C1F31301C3F31303801A994143
S1132FC043F4801304D2641E4000494180185941DF
S1132FD0C90241EA5051B1FBF3F603FB1611A2FBFF
S1132FE00675D7EBC020A94102D2761E801859413C
S1132FF0C90241EA5051B1FBF3FE03FB1E11A2FBCF
S11330000E75D7EBC020A94103D2AEF1010E801892
S11330105941890241EA9051760546EA8E2EB1FB68
S1133020F3F603FB1611A2FB0675D7EB8020A9412A
S113303002D2761E80185941C90241EA50514EEA23
S1133040060EB1FBF3F603FB1611A2FB0675D7EBD4
S1133050C020A94102D2761E80185941C90241EA12
S11330605051B1FBF3F703FB1711A2FB0735D3EB68
S1133070C020A94167F100070CBF004247F00107D7
S113308066F3D5274FEA1E31B80814F5806412DDC3
S1133090BD0775F1004250EB0E5051EB045111F590
S11330A0801F5CBF41EA0C01F0BD4CF07F6141F030
S11330B0E0410020F0BDBD076D0840EA0E5041F428
S11330C08011D4F10104B4F120060ADAC4F1200617
S11330D00200E04001FA06F3E1401843B240154310
S11330E00EE0342C13DCC6F1200445EA40056D08DB
S11330F020FA06F2154321FA06F0A1400D430021FF
S113310075F1004250F1000051EB0C01F0BD0020BC
S11331105FEA0C01F0BDCFB992185B41B3FA83F7B3
S113312004BFB2FA82F6BF190B3FB7F120062FBFD6
S113313002FA06F3BB40C7F1200622FA06F638BFAE
S11331403343BA401CB1E419641E33E77F4231F0C3
S11331500041B1FA81F404BFB0FA80F6A4190B3C23
S1133160B4F120062FBF00FA06F1A140C4F12006F5
S113317020FA06F638BF3143A0403C1B1AE7AC42A4
S11331801ABF05EA1357AF4212E050EA41061CBFCA
S113319052EA4306BFE750EA4107304661461CBF86
S11331A041EA0551F0BD52EA430C08BFC143F0BDEA
S11331B000204FF4001616EB410F98BF16EB430F97
S11331C008BF16EB410F24BFC14305E016EB430FC4
S11331D00CBF61464CEA0551F0BD91FBF2F303FBD1
S11331E01211C0E9003170477047000003460846D9
S11331F00169491E0161C268521C0029C26003D4DE
S113320001220021006818474FF0FF3070472DE974
S1133210F04788B004464FF0FF352E4600911868F9
S113322001900020039002920FF620270FF6142835
S11332306FF0004902E00298401C0290DDF808A0FB
S11332409AF80000A0F10902052A09D3202807D022
S1133250F0B9002EB8BF0026304608B0BDE8F087AC
S11332600398401C0390012200210098A047A0F17C
S113327009010529F4D32028F2D00399491E10F13D
S1133280010F0391D7D0002201460098A047D2E74E
S1133290252809D10AF10100029001782A2906BFE4
S11332A0401C0290002115E00398401C0390012269
S11332B000210098A0479AF800108842BBD00399D7
S11332C0491E10F1010F0391C3D00022014600985A
S11332D0A047BEE78DF81C100020059002980078E6
S11332E030380A280FD30695029801784046FFF734
S11332F00FFD00281DBF029810F8011B0290002149
S113330012E0484508D002980078059901EB810243
S113331000EB4200303805900299491C029109786B
S113332030390A29EDD3DEE78DF81D109DF81D0014
S1133330682805D10298017868290CD1622106E039
S11333406C2802BF029801786C2904D171218DF890
S11333501D10401C0290029801783846FFF7D8FCF3
S1133360B0B90398401C0390012200210098A047A3
S1133370A0F109010529F4D32028F2D00399491EAC
S113338010F1010F039103D0002201460098A047D9
S113339000A9204600F010F8012803DA002E3FF5BA
S11333A05CAF59E7002E48BF00269DF81E00002898
S11333B03FF441AF761C3EE738B505460C46002085
S11333C0A077A068007825385DD01C3824D0001F71
S11333D0022821D913381BD0C01E6ED0801F1BD0E9
S11333E0801E13D0401E13D0401E022814D9001F83
S11333F00ED0401F14D0401E012809D9001F40D010
S1133400801E05D0C01E03D0002032BD002256E02D
S11334102846BDE8344037E12846BDE834401DE283
S1133420207F002839D1607F622808D0682818D00E
S11334306A280CD06C281CD0712808D019E0606868
S1133440011D6160E16800680170012032BD62689D
S1133450101D6060E068C1171268C2E90001012014
S113346032BD6068011D6160E1680068018001206F
S113347032BD6068011D6160E1680068016001207F
S113348032BD01221BE0E068401CE0600122002103
S11334902068A8470146252901D1012032BDE068F2
S11334A0401E11F1010FE06004D000222068A847FB
S11334B0002032BD4FF0FF3032BD4FF0FF322846BE
S11334C0BDE838402DE9F14F82B00D46164600277D
S11334D00024002E28D5A868401CA86000785E2827
S11334E005D1A968481CA8600878009000E00097FE
S11334F0A86801785D2908BF401C5D21FFF708FC1E
S1133500002800F0B880D5F808B0A0EB0B0AA8603A
S1133510BAF1030F08DBAAF102022D210BF101001D
S1133520FFF71EFC00B101276869012804DA002EA8
S113353014BF6FF0004001202861287F68B96868D3
S1133540011D6960D0F8008007E008F8019B0120A4
S1133550A877A869401EA861022429460298FFF7AB
S113356045FE814610F1010F7DD0012E1BDBA9F130
S11335700900052802D3B9F1200F6AD1E868401E7A
S1133580E860002249462868029B98470EB1022C45
S11335906DD0022C74D0E00702D419F1010F6AD166
S11335A04FF0FF306DE0002E53D577B90098002816
S11335B052464946584604D1FFF7D2FB0028DDD0D5
S11335C003E0FFF7CDFB0028D8D1002F41D05FFAEC
S11335D089F0009900295246594627D108E00B7812
S11335E09842A4BF8B78834233DA01F20301D21EDE
S11335F0032A09D34B782D2BF1D011F8013B8342D8
S113360018BF521EF4D124E0002AB7D011F8013BB0
S1133610834218BF521EF7D11BE00B789842A4BF17
S11336208B788342AADA01F20301D21E032A0ED355
S11336304B782D2BF1D011F8013B834218BF521E59
S1133640F4D19BE711F8013B834297D0521E002A24
S1133650F8D1287F00287FF47FAFA86900287FF481
S113366074AF01248AE7E868401EE8608EE7287F8B
S113367030B9A86908B9002003E0002088F80000E8
S1133680012003B0BDE8F08F2DE9F04389B08146F5
S11336900C4660690128B8BF6FF0004020610DF14D
S11336A000084846FFF7A2FD07462B2F18BF2D2F11
S11336B008D18DF800700DF1010821464846FFF746
S11336C095FD07460025A0680078642814BF752876
S11336D00A260DD0692808BF002609D06F2808BF24
S11336E0082605D070281ABF40F02000782810263C
S11336F0302F24D1012521464846FFF777FD0746A0
S113370047F02000C0B2782815D1002E18BF102E23
S113371006D1102621464846FFF768FD07460025D6
S1133720302F0FD121464846FFF760FD074601259B
S1133730302FF7D007E0002EF2D10826F0E796B933
S11337400A2610E07DB1302008F8010B0BE00DF1E2
S11337501F00804538BF08F8017B21464846FFF723
S113376045FD0746012517F1010F19D0F9B261296A
S113377028BF573908D2412928BF373904D23039F4
S1133780C9B20A2928BFFF21C9B2F0B28142DED3EF
S1133790E068401EE060002239462068C84702E025
S11337A0E068401EE06045B900A880450ABF17F1F3
S11337B0010F00204FF0FF304DE0002088F800009A
S11337C0207F002846D1A0680078642818BF6928A3
S11337D007D13246002100A800F08AFA0122A2771C
S11337E00AE03246002100A800F041FB0122A27742
S11337F0A2681278702A28D0627F622A0CD0682AC4
S113380017D06A2A0ED06C2A19D0712A0AD0742AC9
S113381018BF7A2A13D018E06268131D6360126817
S1133820107017E06268131D63601268C2E900013A
S113383010E06268131D6360126810800AE0626819
S1133840131D63601268106004E06268131D6360F6
S113385012681060012009B0BDE8F0832DE9F04F33
S113386093B081460C4660690128B8BF6FF00040F0
S113387020610DF108084846FFF7B8FC074600250B
S11338802B2F18BF2D2F08D18DF808700DF10908C2
S113389021464846FFF7AAFC07464FF00A0A0026CD
S11338A0302F24D121464846FFF7A0FC074647F0B5
S11338B02000C0B278280CD00126302F40F0E080E0
S11338C021464846FFF792FC07460126302FF7D0E1
S11338D0D7E0302008F8010B782008F8010B2146C6
S11338E04846FFF783FC07464FF0100AE5E747F028
S11338F02000C0B26E2862D1AA4608F8010B214606
S11339004846FFF773FC074647F02000C0B2612821
S113391040F0648108F8010B21464846FFF766FC35
S1133920074647F02000C0B26E2840F05781214678
S11339304846FFF75BFC0746282F2AD0E068401E64
S113394017F1010FE0600ED0002239462068C84705
S113395009E05EB902A880450ABF17F1010F0020F3
S11339604FF0FF306AE16E2008F8010B002088F860
S11339700000207F002840F06081BAF10B0F80F036
S113398038812A46002102A800F042FBCDE900015B
S11339903AE121464846FFF729FC0746A0F16101B8
S11339A01A29F6D3A0F141011A2924BF30380A2874
S11339B0EFD35F2FEDD0292F40F01081D3E7692892
S11339C062D1AA4608F8010B21464846FFF70EFCCF
S11339D0074647F02000C0B26E2840F0FF8008F888
S11339E0010B21464846FFF701FC074647F020003B
S11339F0C0B2662840F0F28021464846FFF7F6FB45
S1133A00074647F02000C0B269280BD0E068401E8A
S1133A1017F1010FE06003D0002239462068C8473F
S1133A206620A1E721464846FFF7E0FB074647F03A
S1133A302000C0B26E2840F0D18021464846FFF7EE
S1133A40D5FB074647F02000C0B2692840F0C68085
S1133A5021464846FFF7CAFB074647F02000C0B29C
S1133A60742840F0BB8021464846FFF7BFFB074659
S1133A7047F02000C0B2792840F0B080662073E798
S1133A8016B1302008F8010BAB4605E02146484644
S1133A90FFF7ACFB0746012617F1010F23D0F8B25C
S1133AA0612828BF573808D2412828BF373804D2A4
S1133AB03038C0B20A2828BFFF20C0B2504508D20F
S1133AC0BBF1240FBABF08F8017B0BF1010B6D1C8D
S1133AD0DCE72E2F07D12E2008F8010B214648469B
S1133AE0FFF784FB0746BBF1000F1ED1302F08D12E
S1133AF06D1E21464846FFF779FB07460126302F05
S1133B00F6D0002D11D5302008F8010B6D1C0CE007
S1133B10BBF1240FBCBF08F8017B0BF1010B21465C
S1133B204846FFF763FB0746012617F1010F10D043
S1133B30F8B2612828BF573808D2412828BF37383F
S1133B4004D23038C0B20A2828BFFF20C0B2504582
S1133B50DED3002E42D047F02000BAF10A0FC0B2E3
S1133B6002D165283AD101E0702837D108F8017BE9
S1133B7021464846FFF73AFB07462B2F18BF2D2F47
S1133B8006D108F8017B21464846FFF72FFB07467C
S1133B900026302F0AD121464846FFF727FB074667
S1133BA00126302FF7D0302008F8010B4FF0000B1E
S1133BB0A7F130000A2803D310E0BBF1080F04DAA0
S1133BC008F8017B0BF1010B012621464846FFF75B
S1133BD00DFB0746A7F130000A28EED3E068401E2B
S1133BE017F1010FE0601FBF002239462068C84763
S1133BF0AFE60022002102A800F00AFACDE9000194
S1133C00A90000A800F006FA0120A077607F6C28C4
S1133C1018BF4C2808D16068011D61600068DDE9A7
S1133C200023C0E9002308E06568281D6060DDE921
S1133C30000100F07DFA29680860012013B0BDE896
S1133C40F08F0000686A6C747A4C000063436E5B0A
S1133C50000000002DE9F04182B080460C461D466C
S1133C6004B900AC464600E0761C3078A0F10901A6
S1133C700529F9D32028F7D02D2816BF2B2816F8AC
S1133C80017B2B272146304600F034F82268964207
S1133C9008BFC4F800802268904503D1002908BFFA
S1133CA000280DD12B2F03D14FF00043994207D2A6
S1133CB02D2F16D1B1F1004F13D301D8012810D301
S1133CC000F07EFA222101600DB1012028602D2F21
S1133CD019BF4FF0FF306FF0004100204FF000415A
S1133CE004E02D2F02D1404261EB4101BDE8FC818B
S1133CF00023AFE72DE9F04F87B083460E46154603
S1133D009946B9F1000F1CBF0020C9F800005F46B6
S1133D1000E07F1C3878A0F109010529F9D3202897
S1133D20F7D02D2816BF2B2817F8010B2B208DF860
S1133D300000002D5AD4012D58D0252D56DA012D1E
S1133D400BDB102D04BF3878302802BF787840F0A0
S1133D50200078280FD1BF1C0DE03878302818BF18
S1133D600A2508D1787840F02000782802D110255F
S1133D70BF1C00E0082504973878302803D117F8D1
S1133D80010F3028FBD00024A0460197CDE902485A
S1133D90A2460FF2E0008DF8010017E0CDE90248D9
S1133DA09DF80110401A5FFA80FA204641462C46DD
S1133DB04FEAE578A4FB002304FB013308FB00333E
S1133DC050460021141843EB01087F1C3978A1F1F7
S1133DD041001A2838BF20312A460FF29800FEF716
S1133DE0BFFF0028DAD10498B84205D10EB1C6F855
S1133DF000B00020002137E00198381A0FF29C012E
S1133E00695C401A25D4012815DA50460021201A8D
S1133E1068EB010188450ED301D884420BD32A46AE
S1133E20EB17FEF7C9FF02460B46DDE902018B42A0
S1133E3008BF82420DD000F0C3F922210160B9F11C
S1133E40000F1CBF0120C9F800004FF0FF34A0464A
S1133E5006E09DF800002D2802D1644268EB480872
S1133E6006B137602046414607B0BDE8F08F002315
S1133E7040E7000030313233343536373839616247
S1133E80636465666768696A6B6C6D6E6F70717286
S1133E90737475767778797A000000000000412900
S1133EA0211C1917161514131212111111101010C8
S1133EB00F0F0F0F0E0E0E0E0E0E0E0D0D0D0D0D1F
S1133EC00D0000002DE9F14D87B00C4690469A464E
S1133ED0054607A800F07AF900F0080BBAF1000FC4
S1133EE01CBF0021CAF8001020F00800012835D1B9
S1133EF00220009004AB22460799284600F0FEF900
S1133F00040004BF0020CDE902001CD00598FDF791
S1133F108DFECDE90201022C15DB06AE671EDDE93C
S1133F20022300203749FDF799FE04460D4656F852
S1133F30040BFDF77BFE22462B46FDF771FFCDE90E
S1133F4002017F1EEBD15346049800EB0802DDE921
S1133F50020100F0D6FACDE9020149E0022836D187
S1133F60009004AB22460799284600F091FB040018
S1133F7004BF0020CDE902001CD00598FDF756FED1
S1133F80CDE90201022C15DB06AE671EDDE9022332
S1133F9000201D49FDF762FE04460D4656F8040B49
S1133FA0FDF744FE22462B46FDF73AFFCDE9020118
S1133FB07F1EEBD1049902A800F02CF85346424628
S1133FC0DDE9020100F09DFACDE9020110E00328C9
S1133FD004BF00200D4905D0042806D14FF0FF305E
S1133FE06FF00041CDE9020102E00020CDE90200BA
S1133FF0BBF1000FDDE9020118BF81F0004108B0F8
S1134000BDE8F08D65CDCD410000B0410000F07FEA
S1134010002357E770B504460D466068C0F30A50A4
S113402040F2FF72904207D16068000304BF206829
S1134030002818D0022070BD010004D12046FEF7EC
S11340406EFF012867DA012D0FDB40F2FF71091AB8
S11340508D420AD36068002847BF00202F49002002
S11340602F49C4E90001012070BD4142A9426168A1
S113407006DA2C4A1140401941EA0050606053E0CE
S113408001F0004162681203120B42F48012626074
S1134090401E451905F13500352803D36160002021
S11340A0206070BD002215F11F0F05DA203522684B
S11340B06068206000206060684213D0521E924104
S11340C0D243C0F1200325689D4055EAD272256889
S11340D0C540666806FA03F32B432360636823FA3A
S11340E000F06060606808436060B2F1004F03D87C
S11340F00BD12078C00708D52068401C20602068B8
S113410018B96068401C60600EE06068884204BFB3
S113411020680028F8D1002070BD00000000F0FFE6
S11341200000F07FFFFF0F804FF0FF3070BD0000F4
S11341304FEAF17CBCF1E04C2CBFBCF5001F11E050
S11341405FEA4C0C34BFBCF17F5F2EE05FEA9C0C4D
S11341504FEA0C1C4FEA3C0CC10071F100414CEBDE
S113416050707047C90241EA5051C00218BF41F073
S1134170010141F000414FEA6C50C0F109002128CF
S113418010D240EACC7CCCF1200C11FA0CF070F186
S11341900040CCF1200C21FA0CF00CF0004C40EB68
S11341A00C0070474FEACC707047490011F5001FAE
S11341B004D84FEACC10FF30C0057047C8177047C9
S11341C0014800F069BB0000E40FFF1F70B40268EF
S11341D01346002400E05B1C1D78A5F10906052E9A
S11341E0F9D3202DF7D02D2D0CBF08242B2D00D171
S11341F05B1C1D7845F020066E2E28D15B1C13F83D
S1134200014B44F02004612C02BF13F8014B44F02D
S113421020046E2C1CBF134600224BD11C460422E2
S11342202578282D46D114F8015FA5F161061A2ED0
S1134230F9D3A5F141061A2E24BF303D0A2DF2D33D
S113424025785F2DEFD0292D34D1631C32E0692EFF
S113425033D15B1C13F8015B45F020056E2D02BFC2
S113426013F8015B45F02005662D1CBF13460022A0
S113427020D11D4644F003022C7844F02004692C1C
S113428002BF15F8014F44F020046E2C12D115F82A
S1134290014F44F02004692C02BF15F8014F44F08B
S11342A02004742C06D115F8014F44F02004792C15
S11342B008BF6B1CF1B10B601CE0302D02BF5978B4
S11342C041F02001782913D1991C0A782E2A08BFBD
S11342D0491C0978A1F16102062A21BFA1F141021A
S11342E0062A30390A2903D29B1C44F0020201E059
S11342F044F001020360104670BC70472DE9F0479A
S11343008CB080460D461499002001EBC1072E2F76
S1134310A8BF2D271860586000262978302904D1B9
S1134320012615F8011F3029FAD000210DF1000CE7
S113433004E01E68761C1E606D1C012695F800E0E2
S1134340AEF130040A2C07D28F42F2DBAEF1300614
S113435001F80C60491CEFE7BEF12E0F08BF6D1C7D
S1134360002904BF2C78302C07D11E68761E1E60ED
S1134370012615F8014F302CF7D02C78A4F1300E1B
S1134380BEF10A0F0BD28F4206DB00AE303C8C55D7
S1134390491C1E68761E1E606D1C0126EDE78F42C7
S11343A018DA00A9795C052906D300A9791811F84F
S11343B0014C641C01F8014C39461F687F1C1F60C6
S11343C008E000AFCF1917F8017C4FB91F687F1CB4
S11343D01F60491E0129F4DA11B98DF8001001217A
S11343E0002E58D000274FF0090EC1F1090C91FBA3
S11343F0FEF404EBC404644494FBFEFC0CEBCC0C10
S1134400B4EB0C0C18BF0120012917DB0DF1000CD3
S113441017F80CC094FBFEF909EBC909B4EB0909C0
S11344200FBF401C53F8209009EB890A0CEB4A0C8F
S113443043F820C0641C7F1C8F42E7DB297841F0DD
S11344402001652927D1294615F8017F2B2F16BF96
S11344502D2F15F8017B2B270024A646DFF848C032
S113446009E0E64505DA0EEB8E0409EB4404A4F1F9
S1134470300E6D1C012495F80090A9F1300ABAF1B0
S11344800A0FEED32D2F08BFCEF1000E1F6877441C
S11344901F6004B90D461AB106B1A846C2F80080DF
S11344A00CB0BDE8F08700BF00E1F5050000000096
S11344B0F8B5064614461D467068C0F30A5040F22B
S11344C0FF72904206D0010006D13046FEF727FD68
S11344D0012801DB002706E040F2FE31726861F337
S11344E01E527260471AD6E9000122462B46FDF798
S11344F0B5FBC6E9000139B23046BDE8F440FFF728
S113450089BD2DE9FB4C14461F46002C00F08C801D
S1134510DDE900230020002100F0C0F900F08480D0
S11345208246DFF810B1002C46D564420FF218150C
S113453008260CE0E00707D550465946D5E9002384
S1134540FDF78CFB82468B4664080835761E002CEA
S113455018BF002EEED10198C0F30A5040F2FF724A
S1134560904206D0010006D100A8FEF7D8FC01282D
S113457001DB002506E040F2FE31019A61F31E5290
S11345800192451ADDE9000152465B46FEF702FD41
S1134590CDE9000129B200A8FFF73CFD050035D59F
S11345A0002C41D0244A254B00A8FFF781FF0500C9
S11345B02CD5641EF6D137E0012C27DB0FF28805D9
S11345C00826E00707D550465946D5E90023FDF7EC
S11345D045FB82468B4664100835761E012C01DBB0
S11345E0002EEED152465B4600A8FFF761FF05009E
S11345F00CD5012C18DB124A124B00A8FFF758FF08
S1134600050003D5641E012CF5DA0DE02DB2002D52
S113461018BF012D08D1FFF7D3FD222101601FB17E
S1134620386840F001003860DDE9000103B0BDE8FE
S1134630F08C00000000F03F436FAC642806C80A09
S11346403CBF737FDD4F157500000000000024405F
S11346500000000000005940000000000088C34032
S11346600000000084D797410080E03779C34143BC
S1134670176E05B5B5B89346F5F93FE9034F384DC4
S1134680321D30F94877825A3CBF737FDD4F157570
S11346902DE9F14F8AB00C4690461F4614984FF00E
S11346A0000AC0EBC009B9F1240FA8BF4FF02309D9
S11346B0C7F800A0C7F804A000252078302804D14A
S11346C0012514F8010F3028FAD000260FF29810B3
S11346D000900DF1040B04E03868401C3860641C41
S11346E00125162221780FF28010FEF739FB50B114
S11346F0B145F1DB0099401A0FF28411405C06F8D1
S11347000B00761CEBE720782E2808BF641C002ED3
S113471004BF2078302807D13868401E386001254E
S113472014F8010F3028F7D0162221780FF2381030
S1134730FEF716FB80B1B1450BDB0FF22C11401ACA
S11347400FF23C11405C01A97054761C3868401E7D
S11347503860641C0125E7E7B14519DA01A819F8A6
S11347600000082806D301A8484410F8011C491C7D
S113477000F8011C4E463868401C386008E001A867
S1134780301810F8010C48B93868401C3860761E9F
S1134790012EF4DA16B98DF804A0012638688000D9
S11347A03860002D52D000200721C6F1070296FB85
S11347B0F1F3C3EBC3039A1892FBF1F3C3EBC30306
S11347C0D31A18BF4FF0010A012E14DB10F80B3076
S11347D092FBF1FCCCEBCC0CB2EB0C0C0EBF0AF14F
S11347E0010A57F82AC003EB0C1347F82A30521C6D
S11347F0401CB042EADB207840F02000702825D12C
S1134800204614F8011F2B2916BF2D2914F8011B6B
S11348102B2100220023134E09E0B34205DA03EBF7
S113482083020EEB4202A2F13003641C012294F8CD
S113483000E0AEF13009B9F10A0FEED32D2908BF1B
S11348405B4239685918396002B90446B8F1000F5F
S113485003D005B90A9CC8F8004050460BB0BDE827
S1134860F08F000000E1F50530313233343536374E
S113487038396162636465664142434445460000D9
S1134880000102030405060708090A0B0C0D0E0FAC
S11348900A0B0C0D0E0F00007047000090420CD163
S11348A041EA030C50EA4C0C07D0994205D14FF46D
S11348B0001C1CEB410F38BF894270476F12833ACA
S11348C0A69B443B1F852B3F0AD7A33B0000803F98
S11348D000000000000000000000803F0100000014
S11348E0A00DFF1F000000000000000000000000F9
S11348F00000000030000000000000000000000084
S113490000000000000000000000000000000000A3
S11349100000000000000000000000000000000093
S11349200000000000000000000000000000000083
S11349300000000000000000000000000000000073
S1134CF0000000005C850000A00FFF1FBF6E0000D5
S1134D002D6E00000000000074850000080DFF1FD8
S1134D10556F0000736E0000000000007C850000E9
S1134D200C0DFF1F556F0000736E000000000000A3
S1134D3084850000140DFF1F556F0000736E000082
S1134D40000000008C8500001C0DFF1F556F000043
S1134D50736E00000000000094850000200DFF1F0A
S1134D60556F0000736E0000000000009C85000079
S1134D70240DFF1F556F0000736E0000000000003B
S1134D80010000000000000000000000000000001E
S1134D90000000000000000000000000000000000F
S1134DA000000000000000000000000000000000FF
S1134DB000000000000000000000000000000000EF
S1134DC000000000000000000000000000000000DF
S1134DD000000000000000000000000000000000CF
S1134DE000000000000000000000000000000000BF
S1134DF000000000000000000000000000000000AF
S1134E00000000000000000000000000000000009E
S1134E10000000000000000000000000000000008E
S1134E20000000000000000000000000000000007E
S1134E30000000000000000000000000000000006E
S1134E40000000000000000000000000000000005E
S1134E50000000000000000000000000000000004E
S1134E60000000000000000000000000000000003E
S1134E70000000000000000000000000000000002E
S1134E80000000000000000000000000000000001E
S1134E90000000000000000000000000000000000E
S1134EA000000000000000000000000000000000FE
S1134EB000000000000000000000000000000000EE
S1134EC000000000000000000000000000000000DE
S1134ED000000000000000000000000000000000CE
S1134EE000000000000000000000000000000000BE
S1134EF000000000000000000000000000000000AE
S1134F00000000000000000000000000000000009D
S1134F10000000000000000000000000000000008D
S1134F20000000000000000000000000000000007D
S1134F30000000000000000000000000000000006D
S1134F40000000000000000000000000000000005D
S1134F50000000000000000000000000000000004D
S1134F60000000000000000000000000000000003D
S1134F70000000000000000000000000000000002D
S1134F80000000000000000000000000000000001D
S1134F90F60A00000200000000000000000000000B
S1134FA000000000000000000000000000000000FD
S1134FB000000000000000000000000000000000ED
S1134FC000000000000000000000000000000000DD
S1134FD000000000000000000000000000000000CD
S1134FE000000000000000000000000000000000BD
S1134FF000000000000000000000000000000000AD
S1135000000000000000000000000000000000009C
S1135010000000000000000000000000000000008C
S1135020000000000000000000000000000000007C
S1135030000000000000000000000000000000006C
S1135040000000000000000000000000000000005C
S1135050000000000000000000000000000000004C
S1135060000000000000000000000000000000003C
S1135070000000000000000000000000000000002C
S1135080000000000000000000000000000000001C
S1135090000000000000000000000000000000000C
S11350A000000000000000000000000000000000FC
S11350B000000000000000000000000000000000EC
S11350C000000000000000000000000000000000DC
S11350D000000000000000000000000000000000CC
S11350E000000000000000000000000000000000BC
S11350F000000000000000000000000000000000AC
S1135100000000000000000000000000000000009B
S1135110000000000000000000000000000000008B
S1135120000000000000000000000000000000007B
S1135130000000000000000000000000000000006B
S1135140000000000000000000000000000000005B
S1135150000000000000000000000000000000004B
S1135160000000000000000000000000000000003B
S1135170000000000000000000000000000000002B
S1135180000000000000000000000000000000001B
S1135190000000000000000000000000000000000B
S11351A000000000EC1400000000000000000000FB
S11351B0000000006666263F0AD7A33B00000000FB
S11351C000000000000000000000D0400AD7233C8B
S11351D0CDCC4C3D0100000030B504000D0028008A
S11351E0DFF8A014096800F0ABFADFF89C14096832
S11351F000F01AFBDFF89414096800F081FBDFF873
S11352008C140860DFF888040068DFF888144968A3
S113521000F096FADFF87C14896800F091FADFF860
S113522078140860DFF87004DFF86814C96891F036
S113523000414160DFF86004DFF85814C96891F058
S113524000418160DFF85004DFF850140968C16040
S1135250DFF844040168DFF83004006800F0E4FA81
S1135260DFF83014096800F04BFBDFF828140860FD
S1135270DFF824044168DFF81004006800F0D4FA71
S1135280DFF81014496800F03BFBDFF808144860AD
S1135290DFF804048168DFF8F003006800F0C4FA62
S11352A0DFF8F013896800F02BFBDFF8E81388605F
S11352B0DFF8E403C168DFF8D003006800F0B4FA53
S11352C0DFF8D013C96800F01BFBDFF8C813C8600F
S11352D02000DFF8B813096800F032FADFF8C013D1
S11352E00860DFF8C00390F9000000F04BFBDFF822
S11352F0A413096800F098FADFF8AC130860DFF82B
S1135300A40390F9000000F03DFBDFF888138968DE
S113531000F08AFADFF894130860DFF8880390F944
S1135320000000F02FFBDFF88013096800F07CFA1E
S1135330DFF87C13096800F0E3FADFF878130860FB
S1135340DFF864030068DFF86C13096800F032FBCF
S1135350DFF864130860DFF854030068DFF85413BF
S1135360096800F027FBDFF854130860DFF85003E6
S1135370DFF8341309680160DFF8280390F90000AE
S113538000F000FBDFF80C13496800F04DFADFF879
S113539034130860DFF820030168DFF82403006891
S11353A000F042FA0100DFF8EC02006800F0C8F9EE
S11353B0DFF8E0120860DFF800030168DFF8040397
S11353C0006800F031FA0100DFF8C802406800F01C
S11353D0B7F9DFF8C0124860DFF8E0020168DFF8CF
S11353E0E002006800F020FA0100AA48806800F09A
S11353F0A7F9A8498860DFF8C4020168DFF8C4028D
S1135400006800F011FA0100A248C06800F098F9A1
S1135410A049C860A8480168A148006800F004FADF
S11354209A49096800F06CFA98490860A348016831
S11354309B48006800F0F8F99249096800F060FAA6
S11354409049086028008F49096800F079F99E495D
S1135450086030BD00229D4B1A809D4B1A809D4AE6
S113546012789D4B23F812009A480078401C994A00
S113547010709A4800789A4A22F8101097480078D9
S1135480401C9649087093480078032802D3914839
S11354900021017091480078082802D38F48002128
S11354A00170002009E08A490988C0B28A4A32F8AA
S11354B010205118864A1180401CC0B20328F2D330
S11354C08348B0F90000032190FBF1F08049088083
S11354D0002009E07D490988C0B2814A32F81020D1
S11354E051187A4A1180401CC0B20828F2D3774878
S11354F0B0F90000082190FBF1F07449088070476E
S113550080B5784890F9001009B27748B0F90000E6
S1135510FFF7A0FF6D48B0F900006330C82148438D
S1135520802190FBF1F07149087070480078C92817
S113553002D36E48C82101706C4800786C4951F858
S1135540200000F0B5FA5FF066326A4BFCF786FB88
S1135550FCF7DAFC00B200F015FA674908605C4811
S1135560B0F900001738FCF761FB644A644BFCF7A0
S113557075FBFEF7DDFD634908606348634909680C
S113558001605D4800686049096800F0D9F85FF07F
S1135590804100F00FFA5E4908605A4800685C498F
S11355A0096800F0ADF95B4900F004FA574909684D
S11355B000F0A6F95549086052480168524800684D
S11355C0FFF70AFE544831490968016053483E49CF
S11355D00968016001BD38B55148B0F9001051485F
S11355E0B0F9000000F005FB05004B4800684E4987
S11355F0096800F085F9040094F00044200000F0EC
S113560057FA0022494BFCF729FBFEF791FD0400F1
S11356104248006890F0004000F04AFA5FF03332EC
S1135620434BFCF71BFBFEF783FD210000F068F9F8
S113563000F040FB3F4908803E48B0F9000040F2CA
S11356407951884204DB3B484FF4AF61018008E0A4
S11356503848B0F900003849884202DA35483649FA
S113566001803448008835490988401A291809B24C
S113567030480088314A1288801A401B00B200F07A
S113568061FB31BD480DFF1F1C04FF1F3C0DFF1FB4
S11356901004FF1F2004FF1F680DFF1F1404FF1FC9
S11356A04C0DFF1F3004FF1F500DFF1F540DFF1F33
S11356B01804FF1F440DFF1F580DFF1F5C0DFF1F33
S11356C0600DFF1F640DFF1F400DFF1F840FFF1FA0
S11356D0820FFF1FBF0FFF1F880DFF1FC00FFF1F8B
S11356E0900DFF1FC40FFF1F860FFF1FBE0FFF1F6C
S11356F0DC7100006666F63F800DFF1F894160E59E
S1135700D022CB3F840DFF1F780DFF1F7C0DFF1FA0
S1135710380DFF1F00007A43300DFF1F340DFF1FAB
S1135720B80FFF1FB60FFF1F2C0DFF1F00003B40DB
S11357303333EB3F800FFF1F88FAFFFFAE0FFF1FCD
S113574090EA010F44BF81F0004100F0E1B800BFCE
S1135750431A4FF000423EBF5340C01AC91800BF5D
S1135760D3095FEAD05C13EB400F34BFB3EB410FB6
S113577040E07CEBD1530CD342EA012122D8D1EB97
S1135780402009D3400A28BF5FEA500140EBCC50C7
S11357907047401A15D04002B0FA80F2521C904073
S11357A0400A4FEA3C23B3EB026384BF00EB73006F
S11357B007E040F400001A16DB07C2F10102D040F2
S11357C018437047182BFCDC31FA03F202FA03F396
S11357D0591A38BF42F00102D2EB40203CBF4000CE
S11357E0ACF1010C5FEACC5CC20572F100414CEBF8
S11357F05020704713EB400F0FD24B0009D0ACEB95
S1135800D153022B03DB4902172BDDDD7047914393
S1135810401A4300D5D10020704713EB410FD0D379
S11358206FF0000070470000FF2212EAD05C1DBF39
S113583012EAD153944593422BE09C44D30780EA67
S113584001021A4043EA002043EA0121A1FB00308F
S1135850410038BF40007CF17F010BDBFE294ADAAE
S11358605B0842EAC15153EA006373F1004C51EB07
S113587010207047D1F1080CDCF120012FDB5B080C
S113588010FA01F10B4373F1004120FA0CF050417E
S1135890704794451CBF02EAD153934280EA010247
S11358A002F000421DD0400019D0490017D05BB966
S11358B0634514D00902B1FA81F39940BCEB030C9F
S11358C0C00140F00040C1E70002B0FA80FC10FAC9
S11358D00CF0B3EB0C0CC90141F00041B6E7100029
S11358E0704740000AD0490008D010F1807F94BF6F
S11358F011F1807F02E042F0FF407047D0437047CF
S113590090EA010F44BF81F00041FFF721BF00BFBF
S1135910421A3CBF801A89184FF0004CC0F3C7529A
S1135920FF2A24D0C1F3C75313B3D21AD2F11903F7
S113593027DD4CEA01214CFA03F321EA0303D140A9
S1135940C20D4CEA0020401834BF20EA0C004CEA97
S11359505000D20553EA006373EB0C0C52EB102099
S1135960420012F1807F38BF7047C00DC0057047F8
S1135970490212BF9A4200EB5120F8E7D2F1170313
S1135980D9D57047002840F10780F446404200F022
S113599003F850F0004060470AD0B0FA80F1884024
S11359A0D1F19D01C905020672F1004241EB1020BC
S11359B07047000010B5FF2313EAD0541DBF13EA4B
S11359C0D1529C429A4239E0A41ADA0780EA0103D0
S11359D0134042EA012142EA0020421A3CBF641EFD
S11359E001EB4202090AB2FBF1FE01FB1E22120284
S11359F0B2FBF1F001FB10226EF30F201202B2FB96
S1135A00F1FE4EEA00207F3406DDFE2C24DA53EA50
S1135A10500050EBC45010BDD4F1020401FB1E220F
S1135A2040F08071192C1DDC21FA04F0C4F120042B
S1135A30A140114371F10042584110BD9C421ABF6C
S1135A4003EAD1529A420FE080EA010E0EF00043BD
S1135A50400004D0490016D143F0FF4010BD490076
S1135A6008BFD343180010BD9C4205D1D21AF7D009
S1135A7001F00041484010BD4A0212BF08464840A8
S1135A8000F0004010BD4AB90902B1FA81F2914018
S1135A9044B1A418C00140F000409EE7C90141F0A0
S1135AA0004152420002B0FA80F4A040141B94E773
S1135AB05FF0FF0C1CEAD05114BF614506E0C11031
S1135AC0400721F0E04101F16051704779B900F0DD
S1135AD0004100020AD0B0FA80FC00FA0CF001F197
S1135AE06051A1EB0C5101EBD021400570474102FC
S1135AF00CBF40F4E0016FF000010020704700008B
S1135B00F0B504002088A080B4F90400B4F90610AC
S1135B10401AFFF737FFE168FFF786FE0500B4F986
S1135B200400FFF72FFFA169FFF77EFE0600B4F91A
S1135B300400B4F90610B0EB4100B4F908104018A1
S1135B40FFF720FF2169FFF76FFE0700280049498E
S1135B5000F062F901D8474D05E02800464900F0FD
S1135B606DF900D2454D3800424900F055F901D88D
S1135B70404F05E03800404900F060F900D23F4F43
S1135B8030003C4900F048F901D83A4E05E03000B5
S1135B90394900F053F900D2384EE0882081A088BA
S1135BA0E08028003900FFF7ABFE3100FFF7A8FEC4
S1135BB0E169FFF7A5FEE061F0BD80B53048FFF76D
S1135BC09FFF2F48C069FFF773FF2E4A2E4BFCF747
S1135BD045F8FEF7ADFA2D4900F01EF900D82C481F
S1135BE02C4900F02BF900D22A4800F063F800B2E7
S1135BF002BD70B5441AFFF7E0FF241A24B2200056
S1135C00FFF7C0FE24490968FFF70EFE050024B221
S1135C102248B0F90000201AFFF7B4FE20490968B1
S1135C20FFF702FE060024B22000FFF7ABFE1D4979
S1135C300968FFF7F9FD01001B480068FFF760FEE3
S1135C40194908601548048017480068174900F08E
S1135C50E3F802D814481649016028003100FFF720
S1135C604FFE11490968FFF74BFE00F023F800B21C
S1135C7070BD00000000FA44FFFFF9C40000FAC43C
S1135C80FC0CFF1F9A9999999999A93F0100964391
S1135C9000009643000096C31C0DFF1FB00FFF1FAA
S1135CA0240DFF1F200DFF1F780FFF1F0100484325
S1135CB0000048434100090E7F3915D4D1F11F017A
S1135CC014D4400007D2C00140F00040C84048BF8F
S1135CD06FF000407047C00140F00040C8404CBF26
S1135CE04FF00040404270470020704700424FF0A0
S1135CF0004058BFC043704780B500B2012806DB9E
S1135D00020092B20021404800F01FF906E000B200
S1135D10424292B204213C4800F017F901BD80B51B
S1135D2000B2012806DB020092B20221364800F0DC
S1135D300CF906E000B2424292B20621324800F069
S1135D4004F901BD38B504000D0024B2012C01DBB7
S1135D500F3403E024B2002C00D50E3C2DB2012DEB
S1135D6001DB0D3503E02DB2002D00D50E3D40F2D0
S1135D70F51024B2844201DB4FF4FA74234824B2B0
S1135D80844200DA214C40F2F5102DB2854201DB49
S1135D904FF4FA751D482DB2854200DA1B4D1C489C
S1135DA0B0F90000012802DB24B2002C07D4184803
S1135DB0B0F90000002806D524B2012C03DB002032
S1135DC0FFF7ADFF03E0200000B2FFF7A8FF104883
S1135DD004801048B0F90000012802DB2DB2002D28
S1135DE007D40C48B0F90000002806D52DB2012DC7
S1135DF003DB0020FFF780FF03E0280000B2FFF779
S1135E007BFF0448058031BD008003400CFEFFFF8A
S1135E108A0FFF1F8C0FFF1F4FF0807C1CEB400F7D
S1135E2094BF1CEB410F05E040EA010C5FEA4C0C07
S1135E3001D28142704718BF884270474FF0807C7E
S1135E401CEB400F94BF1CEB410F05E040EA010C32
S1135E505FEA4C0C01D28842704718BF81427047F8
S1135E6010B4584B984206D1574B1B6853F08073BB
S1135E70554C236012E0554B984206D1524B1B6897
S1135E8053F00073504C236008E0514B984205D105
S1135E90504B1B6853F080734E4C2360436D53F09A
S1135EA004034365036833F0180303600368DB08E5
S1135EB0DB000360D0F880305B085B00C0F8803002
S1135EC00023C365FF230366C9B2C90011F018019A
S1135ED0D2B212F007025118016010BC704770B4BE
S1135EE0039CC9B210EBC105ED6835F00405C9B2D5
S1135EF010EBC106F560C9B210EBC105ED6855F0B1
S1135F000805C9B210EBC106F560C9B210EBC105B2
S1135F10ED6855F02005C9B210EBC106F560056EB9
S1135F2001268E40B543056692B2C2649BB283607B
S1135F30C9B210EBC101A4B20C6100214160416DF2
S1135F4049084900416570BC7047C9B210EBC100F3
S1135F5092B20261704730B41C4CA04206D11A4C74
S1135F60246854F00074184D2C6008E0184CA042CA
S1135F7005D1184C246854F08074164D2C60446D7F
S1135F8054F004044465C9B2012906D1D0F8801044
S1135F9051F00801C0F8801005E0D0F8801031F00D
S1135FA00801C0F8801012B2C2649BB28360D0F8BA
S1135FB0801051F00101C0F880100021416030BC14
S1135FC070470000008003403C8004400090034080
S1135FD000800B4030800440416D51F00101416567
S1135FE0704742680A80002141607047DFF8CC1492
S1135FF0B1F9001000B2091ADFF8C4241160DFF807
S1136000BC14B1F9001000B2091ADFF8B024B2F9D7
S1136010002000B2101AB1F52F7F01DD4FF42F716B
S113602011F52F7F01DADFF89C14B0F5167F01DD3E
S11360304FF4167010F5167F01DADFF88C0440F285
S1136040DC525143DFF8842411604FF461714843FA
S1136050DFF87C140860DFF868040068DFF8741463
S11360600968401A00214843DFF86C140860DFF81F
S11360706C040068DFF8581409680818DFF85C1429
S11360800860DFF85C04DFF85C1409880180DFF83D
S11360903C040068DFF8401409680818DFF83C1471
S11360A00968082291FBF2F10818642190FBF1F0D1
S11360B0DFF830140880DFF82C04B0F9000040F257
S11360C0F511884204DBDFF81C044FF4FA710180F7
S11360D0DFF81004B0F90000DFF80C14884204DA89
S11360E0DFF80004DFF800140180DFF8E803DFF8CC
S11360F0D01309680160DFF8E40300684CF2513101
S1136100884204DBDFF8D4034CF250310160DFF83D
S1136110CC030068DFF8D413884204DADFF8BC0348
S1136120DFF8C8130160704780B509B201FA80F046
S1136130022190FBF1F0DFF8B8130880DFF87C034C
S11361400088DFF8AC130988401ADFF8A813088028
S1136150DFF89C03B0F90000FFF748FFDFF898036D
S1136160DFF8901309880180DFF89003DFF88813C3
S11361700988018001BDDFF86C03B0F90000DFF885
S11361806013B1F90010401ADFF874130978491C40
S1136190142291FBF2F14843DFF84413B1F90010E3
S11361A04018DFF8601308807047000080B500B223
S11361B000FA81F1022291FBF2F101004FF63870EE
S11361C0081A40F2911180B2884226D3DFF83803CE
S11361D00078401CDFF830130870DFF82C030078D7
S11361E006281DD3DFF824030121017072B60022B2
S11361F00021DFF81C03FFF7A8FE00220221C44897
S1136200FFF7A3FE00220421C148FFF79EFE0022EF
S11362100621BF48FFF799FE02E0BB480021017048
S113622001BDBC48008840F2E9318842C0F0428197
S1136230B8480088B0F5FA6F07D3B7480021017059
S11362409E48B6490988018037E1B248008840F287
S11362509B7188420AD3B148B0F900001321484326
S1136260142190FBF1F09549088026E1A9480088A3
S113627040F2667188420AD3A848B0F9000012219E
S11362804843142190FBF1F08C49088015E1A148A2
S1136290008840F2327188420AD3A048B0F9000065
S11362A011214843142190FBF1F08449088004E152
S11362B09848008840F2FD61884209D39748B0F9B4
S11362C000000001142190FBF1F07C490880F4E007
