S01300004B31305F50726F6A6563742E737265632F
S3151FFF0000F8FF00207D08FF1FCD06FF1FCD06FF1F30
S3151FFF0010CD06FF1FCD06FF1FCD06FF1FCD06FF1FF8
S3151FFF0020CD06FF1FCD06FF1FCD06FF1FCD06FF1FE8
S3151FFF0030CD06FF1FCD06FF1FCD06FF1FCD06FF1FD8
S3151FFF0040CD06FF1FCD06FF1FCD06FF1FCD06FF1FC8
S3151FFF0050CD06FF1FCD06FF1FCD06FF1FCD06FF1FB8
S3151FFF0060CD06FF1FCD06FF1FCD06FF1FCD06FF1FA8
S3151FFF0070CD06FF1FCD06FF1FCD06FF1FCD06FF1F98
S3151FFF0080CD06FF1FCD06FF1FCD06FF1FCD06FF1F88
S3151FFF0090CD06FF1FCD06FF1FCD06FF1FCD06FF1F78
S3151FFF00A0CD06FF1FCD06FF1FCD06FF1FCD06FF1F68
S3151FFF00B0CD06FF1FCD06FF1FCD06FF1FCD06FF1F58
S3151FFF00C0CD06FF1FCD06FF1FCD06FF1FCD06FF1F48
S3151FFF00D0CD06FF1FCD06FF1FCD06FF1FCD06FF1F38
S3151FFF00E0CD06FF1FCD06FF1FCD06FF1FCD06FF1F28
S3151FFF00F0CD06FF1FCD06FF1FCD06FF1FCD06FF1F18
S3151FFF0100CD06FF1FCD06FF1FCD06FF1FCD06FF1F07
S3151FFF0110CD06FF1FCD06FF1FCD06FF1FCD06FF1FF7
S3151FFF0120CD06FF1FCD06FF1FCD06FF1FCD06FF1FE7
S3151FFF0130CD06FF1FCD06FF1FCD06FF1FCD06FF1FD7
S3151FFF0140CD06FF1FCD06FF1FCD06FF1FCD06FF1FC7
S3151FFF0150CD06FF1FCD06FF1FCD06FF1FCD06FF1FB7
S3151FFF0160CD06FF1FCD06FF1FCD06FF1FCD06FF1FA7
S3151FFF0170CD06FF1FCD06FF1FCD06FF1FCD06FF1F97
S3151FFF0180CD06FF1FCD06FF1FCD06FF1FCD06FF1F87
S3151FFF0190CD06FF1FCD06FF1FCD06FF1FCD06FF1F77
S3151FFF01A0CD06FF1FCD06FF1FCD06FF1FCD06FF1F67
S3151FFF01B0CD06FF1FCD06FF1FCD06FF1FCD06FF1F57
S3151FFF01C0CD06FF1FCD06FF1FCD06FF1FCD06FF1F47
S3151FFF01D0CD06FF1FCD06FF1FCD06FF1FCD06FF1F37
S3151FFF01E010B500220121674800F0E8F8664C01228E
S3151FFF01F01021204600F0E2F801221021204600F0D0
S3151FFF020027F9624C01220021204600F0D7F8012270
S3151FFF02100021204600F01CF95D4C204600F024F912
S3151FFF0220012300220121204600F030F9002203237B
S3151FFF02301146204600F03BF92046BDE8104000233B
S3151FFF02401A46012100F04DB910B582B003220D21C8
S3151FFF0250504800F0B3F8504C05220121204600F00C
S3151FFF026073F90020009047F23053002201212046E8
S3151FFF027000F0A3F9204602B0BDE81040002201217D
S3151FFF028000F0BEB938B5454C05220121204600F0C6
S3151FFF02905BF93E4D04220421284600F08FF8042205
S3151FFF02A00621284600F08AF80020009002464FF4E8
S3151FFF02B0FA730421204600F080F9002000900246C1
S3151FFF02C04FF4FA730621204600F077F90022042126
S3151FFF02D0204600F095F92046BDE83840002206214A
S3151FFF02E000F08EB910B5294C01220221204600F0DD
S3151FFF02F065F801220221204600F0AAF82046BDE834
S3151FFF030010400122022100F077B810B5214C0122BF
S3151FFF03100C21204600F052F801220C21204600F046
S3151FFF032097F801220E21204600F048F801220E21E0
S3151FFF0330204600F08DF801221021204600F03EF8DE
S3151FFF034001221021204600F083F8012205212046B5
S3151FFF035000F034F82046BDE810400122052100F0C9
S3151FFF036077B880B5022301224FF47A71002000F07F
S3151FFF037053F9BDE8084040F6AC520121064800F08C
S3151FFF03803FB9000040F00F4080F00F40C0F00F4014
S3151FFF039000B0034000F00F40009003400080034071
S3151FFF03A080B5FFF71DFFFFF74FFFFFF76BFFFFF748
S3151FFF03B099FFFFF7AAFFBDE80140D2E7DFF878C034
S3151FFF03C0B0EB0C000FD040380BD0403807D0403869
S3151FFF03D003D0403808D1194B06E0194B04E0194BDF
S3151FFF03E002E0194B00E0194B53F8210062F30A2074
S3151FFF03F0FFE743F821007047DFF83CC0B0EB0C0066
S3151FFF04000FD040380BD0403807D0403803D0403884
S3151FFF041008D10A4B06E00A4B04E00A4B02E00A4BDF
S3151FFF042000E00A4B012A53F821000CBF40F04000A1
S3151FFF043020F04000DDE7000000F00F4000D0044031
S3151FFF044000C0044000B0044000A0044000900440D8
S3151FFF04500123012A03FA01F142690CBF114322EA64
S3151FFF046001014161704700003449884205D1344874
S3151FFF0470C16841F00061C16070473249884204D1AB
S3151FFF04802F48016841F000610160704749019200E2
S3151FFF049001F0600102F00C02511803F00302D0F8BD
S3151FFF04A008C05118103141EA0C01816070470129BC
S3151FFF04B0C1680CBF41F0100121F01001C160C16876
S3151FFF04C0012A21F00801C160C1680CBF41F0040178
S3151FFF04D021F00401C160C16803F003021143C1602B
S3151FFF04E0704710B51C4600230362436A01F00301E0
S3151FFF04F00C3119434162012A01681AD141F04001AB
S3151FFF050001600E49884208D1392000F0BEF8214606
S3151FFF0510BDE81040392000F0CCB80A4988420BD1FC
S3151FFF05203A2000F0B2F82146BDE810403A2000F00D
S3151FFF0530C0B821F04001016010BD000000B00340AC
S3151FFF05403080044000B00B402F4B10B4984202BFBF
S3151FFF05502E4BDC6844F0807406D02D4B984205D194
S3151FFF05602A4BDC6844F00074DC6007E0294B984295
S3151FFF057004D1264B1C6844F080741C60436DC90070
S3151FFF058043F004034365036801F0180123F01803C2
S3151FFF05900360036802F00702DB08DB000360D0F885
S3151FFF05A0803051185B085B00C0F880300023C3659D
S3151FFF05B0FF230366016010BC7047F0B4049C00EB79
S3151FFF05C0C105EE68012726F00406EE60EE6807FAFE
S3151FFF05D001F146F00806EE60EE68A4B246F020066B
S3151FFF05E0EE60066E26EA01010166C26483602C6116
S3151FFF05F000214160416D490849004165F0BC7047C4
S3151FFF060000EBC10002617047008003403080044049
S3151FFF06100090034000800B40F8B51C46164B174E43
S3151FFF06201D684FF0000C45F400051D6003019D1961
S3151FFF0630AF687F087F00AF60114FC7F800C001EB9F
S3151FFF0640410739019951012A0CD100F14406304661
S3151FFF065000F01BF82146304600F02BF8A86840F043
S3151FFF0660020002E0A86820F00200A860A86840F018
S3151FFF06700100A860F1BD00003C80044000710340EB
S3151FFF0680007003400D49086070474109012200F0C1
S3151FFF06901F0002FA00F00A4A0A4B11B918601060D0
S3151FFF06A005E0012907BF58605060986090600020E1
S3151FFF06B07047054A090111540020704708ED00E0F5
S3151FFF06C000E100E080E200E000E400E07047000088
S3151FFF06D010B572B63C484CF22051C1814DF6281118
S3151FFF06E0C18101884FF6FE721140018037481C22D7
S3151FFF06F0416841F47851416035494A70026842F0BA
S3151FFF070080520260334A137843F080031370982296
S3151FFF07100A708A79D206FCD48A79C2F38102022A29
S3151FFF0720FAD107220A7100224A712B4A13681468ED
S3151FFF073044F47F041460294C0461136058204871E8
S3151FFF074088798006FCD588794006FCD5087800F0A5
S3151FFF07503F0008708879C0F381000328FAD120482B
S3151FFF0760204A017841F0800101701F491F48521A24
S3151FFF077005D011F8013B521E00F8013BF9D11C4968
S3151FFF07801C4A1D48521A05D011F8013B521E00F88C
S3151FFF0790013BF9D119481A49091A05D0491E0022EA
S3151FFF07A000F8012B0029F9D11649174C8C4204D0AA
S3151FFF07B04FF4F072204600F029F82046FFF762FF3C
S3151FFF07C000F050F8FEE700BF0020054034800440CC
S3151FFF07D00040064008C0074000F00140000013011B
S3151FFF07E0005006400000000000000000000000004F
S3151FFF07F000000000000000000000000000000000D5
S3151FFF0800000000000000FF1F0000FF1F103A07D364
S3151FFF081030B4B1E83810103AA0E83810F9D230BC1E
S3151FFF0820530724BFB1E80810A0E8081044BF51F8CA
S3151FFF0830043B40F8043BD20724BF31F8022B20F8B4
S3151FFF0840022B44BF0B7803707047083A07D3B1E8F2
S3151FFF08500810083A40F8043B40F804CBF7D2530779
S3151FFF0860E4E7000080B572B6642000F005F8FFF7D5
S3151FFF087097FD62B6FEE70000704700004FF00000CD
S3151FFF08804FF000014FF000024FF000034FF000043E
S3151FFF08904FF000054FF000064FF000074FF000081E
S3151FFF08A04FF000094FF0000A4FF0000B4FF0000CFE
S3151FFF08B062B6FFF70DFFFEE700F009F8002801D02B
S3151FFF08C0C046C0460020FFF7CDFF00F002F801200B
S3151FFF08D0704700F001B800000746384600F002F8DF
S3151FFF08E0FBE7000080B5C046C046024A110018202C
S3151FFF08F0ABBEFBE726000200C046C046C046C04649
S3091FFF0900FFF7DAFF00
S7051FFF08F9DB
